:100000000C9463000C948B000C948B000C948B006C
:100010000C948B000C948B000C948B000C948B0034
:100020000C948B000C948B000C948B000C948B0024
:100030000C948B000C948B000C948B000C948B0014
:100040000C94FD040C948B000C948B000C948B008E
:100050000C948B000C948B000C948B000C948B00F4
:100060000C9447050C948B0000000000240027002E
:100070002A0000000000250028002B0000000000DE
:1000800023002600290004040404040404040202DA
:100090000202020203030303030301020408102007
:1000A0004080010204081020010204081020000012
:1000B0000008000201000003040700000000000027
:1000C00000006606F60A11241FBECFEFD8E0DEBF9F
:1000D000CDBF23E0A6E6B2E001C01D92AB3BB20764
:1000E000E1F712E0A0E0B1E0ECE6FAE102C0059031
:1000F0000D92A636B107D9F710E0C2E6D0E004C0F1
:100100002197FE010E94310BC136D107C9F70E9429
:10011000F1060C94290D0C9400000895089596E0C2
:10012000899FD0011124AA5CBC4F90967C936E935A
:100130005F9791E091969C939197E091A303F09142
:10014000A4039091A203992339F0309751F08111C3
:1001500008C0809152030994309719F05C968C91F5
:10016000FACF0895CF92DF92EF92FF920F931F93F1
:1001700096E0899FF0011124EA5CFC4F11A2278DC3
:1001800030A12130310551F178F02230310509F4E8
:1001900051C02330310509F452C01F910F91FF90D7
:1001A000EF90DF90CF9008956623B9F361E070E09F
:1001B0000E948F002FB7F89480911B0390911C032D
:1001C000A0911D03B0911E032FBF80938E039093C7
:1001D0008F03A0939003B0939103DFCF9FB7F89460
:1001E000C0901B03D0901C03E0901D03F0901E03F1
:1001F0009FBF00918E0310918F0320919003309147
:100200009103C01AD10AE20AF30A0091A0031091E7
:10021000A10330E020E00C151D052E053F0550F42C
:1002200062E070E01F910F91FF90EF90DF90CF9010
:100230000C948F006111B1CF63E070E0F3CF70E0F8
:1002400060E0F0CF0895AF92BF92CF92DF92EF922D
:10025000FF920F931F93CF93DF936C017B018B0170
:10026000040F151FEB015E01AE18BF08C017D107C0
:1002700059F06991D601ED91FC910190F081E02D4A
:10028000C6010995892B79F7C501DF91CF911F919F
:100290000F91FF90EF90DF90CF90BF90AF900895B7
:1002A000833081F028F4813099F08230A9F00895EC
:1002B0008730A9F08830C9F08430B1F48091800093
:1002C0008F7D03C0809180008F7780938000089598
:1002D00084B58F7784BD089584B58F7DFBCF8091E1
:1002E000B0008F778093B00008958091B0008F7D2B
:1002F000F9CFCF93DF93282F30E0F901E255FF4F7C
:100300008491F901E656FF4FD491F901EA57FF4F66
:10031000C491CC23A1F081110E945001EC2FF0E098
:10032000EE0FFF1FE458FF4FA591B491EC91ED2320
:1003300081E090E009F480E0DF91CF91089580E0C2
:1003400090E0FACF862F0C9479011F93CF93DF931F
:10035000282F30E0F901E255FF4F8491F901E6566C
:10036000FF4FD491F901EA57FF4FC491CC23A9F074
:10037000162F81110E945001EC2FF0E0EE0FFF1FAD
:10038000EE58FF4FA591B4918FB7F894EC911111ED
:1003900008C0D095DE23DC938FBFDF91CF911F91F2
:1003A0000895DE2BF8CF862F642F0C94A501CF93F0
:1003B000DF9390E0FC01E656FF4F24918A579F4F50
:1003C000FC0184918823C9F090E0880F991FFC01FB
:1003D000E859FF4FA591B491FC01EE58FF4FC5912C
:1003E000D49161110DC09FB7F8948C912095822310
:1003F0008C938881282328839FBFDF91CF91089514
:10040000623051F49FB7F8943C91822F80958323FA
:100410008C93E8812E2BEFCF8FB7F894EC912E2B95
:100420002C938FBFEACF862F642F0C94D7013FB750
:10043000F8948091100390911103A0911203B09150
:10044000130326B5A89B05C02F3F19F00196A11DE7
:10045000B11D3FBFBA2FA92F982F8827BC01CD010E
:10046000620F711D811D911D42E0660F771F881F6D
:10047000991F4A95D1F708958F929F92AF92BF929C
:10048000CF92DF92EF92FF924B015C010E94170224
:100490006B017C010E9417026C197D098E099F096E
:1004A000683E734081059105A8F321E0821A910806
:1004B000A108B10888EEC80E83E0D81EE11CF11C2B
:1004C00081149104A104B10429F7FF90EF90DF900B
:1004D000CF90BF90AF909F908F90089585ED8093BF
:1004E000BC008091BC0084FDFCCF109225030895D0
:1004F0002091A602260F3327331F21323105ECF459
:1005000020912503FC0190E080E0243069F082E036
:100510000895A091A6022191AC014A575D4FA40F06
:10052000B52FB11D2C930196861798F38091A602E2
:10053000680F6093A60280E0089581E00895089511
:10054000E091290380912803E81730F4F0E0EA599C
:10055000FD4F808190E008958FEF9FEF0895909177
:100560002903809128032FEF3FEF981748F4E92FD4
:10057000F0E0EA59FD4F208130E09F5F909329031E
:10058000C90108958091280390912903891B990B33
:100590000895CF92DF92EF92FF920F931F93CF9324
:1005A000DF937C01CB018A012091ED02222389F0A7
:1005B000EB016B01C40ED51ECC15DD0569F0699108
:1005C000D701ED91FC910190F081E02DC7010995D3
:1005D000F3CF642F0E947802C801DF91CF911F9161
:1005E0000F91FF90EF90DF90CF900895CF93DF931E
:1005F0001F92CDB7DEB769832091ED022223F9F077
:1006000020912603203258F021E030E0FC013383B2
:10061000228390E080E00F90DF91CF910895809148
:100620002703E82FF0E0E251FD4F998190838F5F1F
:10063000809327038093260381E090E0ECCF61E074
:10064000CE0101960E947802F7CFCF93FC01C481BE
:1006500021E02093ED02C0930E0310922703109225
:1006600026038385682B8AE293E00E94F60290912C
:100670002603913208F03FC0809125038111FCCF01
:1006800082E08093250381E0809324038FEF8093A1
:10069000EC021092EB029093EA02AEEEB2E0EAECCA
:1006A000F2E080E098132FC01092C9028091C90235
:1006B000CC0FC82BC093C90280912303813039F538
:1006C000109223038091C9028093BB008091BC00EB
:1006D00083FDF8CF85EC8093BC00809125038230A8
:1006E000E1F38091EC028F3F31F08091EC02803297
:1006F00011F08091EC0210922703109226031092C1
:10070000ED02CF9108952D9121938F5FCBCF85EE90
:10071000E2CF90E080E0089561E08AE00E94A501C8
:1007200060E08BE00E94A50168EE73E080E090E05D
:100730000C943C020F931F93CF938C01C62F0E9401
:1007400025036C2F6460C8010E9425036C2F6B7F0A
:10075000C8010E94250383EC90E00197F1F7CF9147
:100760001F910F9108950F931F93CF93DF938C01E7
:10077000D62FC42F607F642B0E949A0380E1D89FFC
:10078000B00111246C2BC801DF91CF911F910F9103
:100790000C949A0340E061E08BEA93E00E94B3037B
:1007A0008BE39FE10197F1F70895CF93DF93CDB7E6
:1007B000DEB728970FB6F894DEBF0FBECDBF98E026
:1007C000E9E1F1E0DE01119601900D929A95E1F7D1
:1007D0009091B303961710F46FEF690F262F30E056
:1007E000220F331F41E050E04C0F5D1F240F351FD7
:1007F000F9016081680F606840E08BEA93E0289619
:100800000FB6F894DEBF0FBECDBFDF91CF910C9431
:10081000B303CF93DF931092290310922803109211
:100820002703109226031092250381E0809324036E
:100830001092230361E082E10E94A50161E083E15F
:100840000E94A5018091B9008E7F8093B9008091AC
:10085000B9008D7F8093B90088E48093B80085E467
:100860008093BC008DE890E0909322038093210355
:100870008EE890E09093200380931F031092B003C2
:100880008091B503823018F098E09093B003809384
:10089000B30362E370E080E090E00E943C0260916C
:1008A000B6038BEA93E00E94250368EE73E080E0D4
:1008B00090E00E943C0260E38BEA93E00E949A037E
:1008C000CBE4D6E4CE010197F1F760E38BEA93E045
:1008D0000E949A032197F1F760E38BEA93E00E946C
:1008E0009A0383E592E00197F1F760E28BEA93E0E7
:1008F0000E949A036091B003606240E08BEA93E04B
:100900000E94B30384E08093B10340E06CE08BEA83
:1009100093E00E94B3030E94CA0382E08093B20373
:1009200040E066E08BEA93E00E94B30340E062E0BF
:100930008BEA93E00E94B3038BE39FE10197F1F709
:10094000DF91CF91089541E00E94B30381E090E0F0
:100950000895FC0101900020E9F73197AF01481B91
:10096000590BBC018BEA93E00C942301FC018081BC
:100970009181009711F00C94D30B0895EF92FF92A0
:100980000F931F93CF93DF93EC017B018A01888142
:100990009981009729F02A813B812417350788F433
:1009A000B8016F5F7F4F0E945C0C009791F09983B4
:1009B00088831B830A832C813D81232B11F4FC0146
:1009C00010821D830C83B701888199810E94220DBA
:1009D0000CC088819981009711F00E94D30B198275
:1009E00018821D821C821B821A82CE01DF91CF9158
:1009F0001F910F91FF90EF9008951F920F920FB6E5
:100A00000F9211242F933F938F939F93AF93BF9394
:100A100080911B0390911C03A0911D03B0911E03B4
:100A200030910F0323E0230F2D3758F50196A11DB8
:100A3000B11D20930F0380931B0390931C03A0937D
:100A40001D03B0931E038091100390911103A09198
:100A50001203B09113030196A11DB11D80931003E1
:100A600090931103A0931203B0931303BF91AF911E
:100A70009F918F913F912F910F900FBE0F901F90DC
:100A8000189526E8230F0296A11DB11DD2CF1F9203
:100A90000F920FB60F9211242F933F934F935F93B2
:100AA0006F937F938F939F93AF93BF93EF93FF9336
:100AB0008091B900887F803609F44AC0F0F5883209
:100AC00009F4A7C018F5803109F49BC0B8F4882355
:100AD00009F4F9C0883009F494C0FF91EF91BF91F7
:100AE000AF919F918F917F916F915F914F913F91C6
:100AF0002F910F900FBE0F901F901895883109F419
:100B000088C0803251F78093EC0214C0803409F41D
:100B10009DC040F48033B9F38833F9F68093EC023A
:100B200085ECB0C0803509F485C0883509F496C0DD
:100B3000883499F60E946E02D0CF883909F48CC0AF
:100B400038F5883729F050F4883611F0803729F6C7
:100B500083E0809325031092C80257C0883809F4B7
:100B60007BC0803919F0803809F0B7CF8091C80276
:100B7000803208F071C0E091C80281E08E0F80934E
:100B8000C8028091BB00F0E0E855FD4F80833DC076
:100B9000803B39F0E0F4803A09F479C0883A09F0F2
:100BA0009CCF84E0809325031092A7021092A602A6
:100BB000E0912103F091220309958091A602811111
:100BC0000FC081E08093A6021092860209C0803C8B
:100BD00009F4A6CF883C09F4A3CF883B09F07DCF68
:100BE000E091A70281E08E0F8093A702F0E0EA5720
:100BF000FD4F80818093BB009091A7028091A60257
:100C000029C08091C9028093BB0085EC8093BC0011
:100C100064CF9091EB028091EA02981758F5E09129
:100C2000EB0281E08E0F8093EB02F0E0E653FD4F84
:100C30008081E9CFE091EB0281E08E0F8093EB029F
:100C40008091BB00F0E0E653FD4F80839091EB0272
:100C50008091EA029817C8F285E8D8CFE091EB02BC
:100C600081E08E0F8093EB028091BB00F0E0E653B1
:100C7000FD4F80838091240381115CCF81E08093BC
:100C8000230384EA8093BC001092250326CF85ECD1
:100C90008093BC00109225038091C802803230F40A
:100CA000E091C802F0E0E855FD4F10826091C80263
:100CB00070E0E0911F03F091200388EA92E009952B
:100CC0001092C8020ACF1092EC0234CF10922D037A
:100CD00010922C0388EE93E0A0E0B0E080932E0306
:100CE00090932F03A0933003B093310385E291E0FA
:100CF00090932B0380932A031092AE031092AD03BE
:100D000081E491E09093AC038093AB038FE38093F5
:100D1000AF0384E18093B40384E08093B503109221
:100D2000B6031092A6031092A5031092A803109286
:100D3000A7031092AA031092A90343E050E069E4CC
:100D400071E085EA93E00E94BE041092380310928D
:100D50003C0310923B0310923D0387E391E0909394
:100D6000370380933603E2E5F3E0108214821382A6
:100D70001582369683E0EE38F807B9F783E091E004
:100D8000909399038093980380E091E090939B0364
:100D900080939A0384E080939C0383E080939D0377
:100DA00087E091E090939703809396038AE090E028
:100DB00090939F0380939E0384EF91E09093A1030F
:100DC0008093A0031092A4031092A30310929203A5
:100DD0001092930310929403109295031092A20321
:100DE0000895CF93DF93CDB7DEB76C970FB6F89425
:100DF000DEBF0FBECDBF789484B5826084BD84B55C
:100E0000816084BD85B5826085BD85B5816085BD05
:100E100080916E00816080936E00109281008091BD
:100E20008100826080938100809181008160809345
:100E30008100809180008160809380008091B1006A
:100E400084608093B1008091B00081608093B00095
:100E500080917A00846080937A0080917A00826029
:100E600080937A0080917A00816080937A008091EB
:100E70007A00806880937A001092C10061E08AE075
:100E80000E94D70161E08BE00E94D70161E08CE015
:100E90000E94D7010E9409040E94090488E08093FF
:100EA000B60360E08BEA93E00E9425038DE491E0B5
:100EB0000E94A90461E080E00E94D5038FE591E0E3
:100EC0000E94A90462E080E00E94D5038EE691E0D2
:100ED0000E94A90463E080E00E94D5038DE791E0C1
:100EE0000E94A90468EB7BE080E090E00E943C0255
:100EF0000E94CA030E948C0364E170E080E090E0ED
:100F00000E943C02812C912C540183943E0123E1E8
:100F1000620E711C6E0139E1C30ED11C0E94CA031E
:100F20008BE891E00E94A90464E670E080E090E024
:100F30000E943C0281E08093A2038FB7F894409115
:100F40001B0350911C0360911D0370911E038FBF02
:100F50008091920390919303A0919403B091950393
:100F6000481B590B6A0B7B0B80919E0390919F034A
:100F7000B0E0A0E084179507A607B70708F015C1F1
:100F800010E080919C03181760F4E0919803F091B1
:100F90009903E10FF11D62E080810E94D7011F5F7C
:100FA000F0CF312C80919D03381608F064C0E32CFB
:100FB000F12CE0919A03F0919B03EE0DFF1D61E08F
:100FC00080810E94D701E0919A03F0919B03EE0D7E
:100FD000FF1D60E080810E94A501D501C401032CA2
:100FE00004C0880F991FAA1FBB1F0A94D2F79C8FB9
:100FF0008B8F2C0140945094212C80919C032816B7
:1010000018F5022D10E0E0919803F0919903E00F9C
:10101000F11F80810E9479010C5F1F4F000F111F8B
:10102000F801EA5CFC4F892B51F4808191812B8D72
:101030003C8D822B932B918380832394DECF808100
:10104000918184219521F7CFE0919A03F0919B0340
:10105000EE0DFF1D61E080810E94A50180919A0341
:1010600090919B03E80EF91E60E0F70180810E94D9
:10107000D701339497CF06E313E082E793E078013A
:10108000F701278D30A1232B31F4148E2FEF3FEF82
:10109000368F258F11A236E0E30EF11C8E159F05C9
:1010A00079F7512C80919C03581608F053C0412CBD
:1010B000252C312C220C331CC101825C9C4F1C015D
:1010C00020919D03421608F043C0F10160817181B7
:1010D000042C02C0769567950A94E2F7529E90011F
:1010E0001124240D311DE6E3F3E080E0458D568D9B
:1010F0002417350709F478C28F5F36968A30B1F726
:1011000060FF24C0E6E3F3E090E080E0448D41110D
:1011100018C0E0919603F0919703E20FF31F40810E
:1011200056E0589FF001599FF00D1124EA5CFC4FE6
:10113000448F368F258F10A2178E61E00E94B20077
:1011400005C0019636968A30910501F74394B8CFD1
:101150005394A8CF80E0F80191A19111892F0A5FE3
:101160001F4FE016F106B9F79FB7F89440911B03A3
:1011700050911C0360911D0370911E039FBF40930B
:101180009203509393036093940370939503882381
:1011900061F080915703882341F08091550390912D
:1011A000560350905203019719F01092A203512C4C
:1011B0008E010F5F1F4F7801F80111821082138298
:1011C00012821582148250E040E06CE771E0C801A1
:1011D0000E94BE040A5F1F4F6016710669F7511026
:1011E00013C0CE010D960E94B604CE0107960E9450
:1011F000B604C7010E94B60480E090E0892B09F490
:101200008DCE0E9400008ACE0E94CA038BE891E036
:101210000E94A9040091190310911A0362E0802F23
:101220000E94D50341E0652D8BEA93E00E94B30351
:1012300064EF71E080E090E00E943C02FAE25F1609
:1012400019F023E252126CC010921A031092190383
:101250000E948C030E94CA038091190390911A0383
:10126000039709F0BECF80911703909118031816C9
:1012700019060CF00DC1809115039091160301968B
:10128000909316038093150310921803109217037E
:1012900010921A03109219030E94CA0362E080E0C0
:1012A0000E94D5038BE991E00E94A90468EE73E0E7
:1012B00080E090E00E943C020E948C038091150324
:1012C00090911603039709F08CCF10921603109299
:1012D00015030E94CA0361E080E00E94D5038FE3FA
:1012E00092E00E94A90462E080E00E94D50381E5BB
:1012F00092E00E94A90461E08CE00E94A50168EEE2
:1013000073E080E090E00E943C0260E08CE00E948C
:10131000A50168EE73E080E090E00E943C02EBCF14
:101320008091A9039091AA030817190730F4E0915E
:10133000A503F091A603309779F510921403E4E128
:10134000F3E02081251186C01C8A1B8A1E8A1D8A13
:10135000188E1F8A598E1A8EF60101900020E9F727
:1013600031978F010C191D09B8016F5F7F4F90E015
:1013700080E00E945C0C009791F09C8B8B8B1E8B05
:101380000D8B2F89388D232B09F443C0188F0F8BB9
:10139000B6010E94220D0DC0E00FF11FD2CF8B8944
:1013A0009C890097C9F51C8A1B8A188E1F8A1E8A81
:1013B0001D8A0091190310911A03F6E0F09F200195
:1013C000F19F500C11244E0C5F1CF2018081918121
:1013D000009739F16B897C896115710501F14281B2
:1013E00053812F89388D42175307C8F00E94220D70
:1013F0008F89988DF20195838483188E1F8AC3018B
:101400000E94B6040F5F1F4F10931A030093190335
:1014100023CFFC011082BACF0E94D30BC4CF0E940D
:10142000D30B26E0209FF001219FF00D1124EE0D3B
:10143000FF1D8B899C89918380838D899E899383ED
:1014400082838F89988D958384831C8A1B8A1E8A48
:101450001D8AD3CF0817190730F4E091A503F09146
:10146000A603309791F410921403E4E1F3E0808135
:10147000851509F4F1CE8091170390911803019618
:101480009093180380931703BDCFE00FF11FEFCFA8
:10149000892B09F013CF10921A03109219030E949E
:1014A000CA0361E080E00E94D5038AEA91E00E94CD
:1014B000A90462E085E00E94D5038CEB91E00E94D4
:1014C000A90460E08AE00E94A50161E08BE00E942F
:1014D000A50168EE73E080E090E00E943C0260EDC0
:1014E00077E080E090E00E943C020E94CA038EEC0C
:1014F00091E00E94A90461E080E00E94D5038EED96
:1015000091E00E94A90462E080E00E94D50368EEA9
:1015100073E080E090E00E943C020E94CA0380EFEA
:1015200091E00E94A90461E080E00E94D5038EED65
:1015300091E00E94A90462E080E00E94D50368EE79
:1015400073E080E090E00E943C020E94CA0380E0C9
:1015500092E00E94A90461E080E00E94D5038EED34
:1015600091E00E94A90462E080E00E94D50368EE49
:1015700073E080E090E00E943C020E94CA0380E198
:1015800092E00E94A90461E080E00E94D5038EED04
:1015900091E00E94A90462E080E00E94D50368EE19
:1015A00073E080E090E00E943C020E94CA0380E267
:1015B00092E00E94A90461E080E00E94D5038EEDD4
:1015C00091E00E94A90462E080E00E94D50368EEE9
:1015D00073E080E090E00E943C020E94CA0380E336
:1015E00092E00E94A90468CE6170A8CD85EA93E0DC
:1015F0000C94B6042F923F924F925F926F927F921B
:101600008F929F92AF92BF92CF92DF92EF92FF9212
:101610000F931F93CF93DF93CDB7DEB7CA1BDB0BBE
:101620000FB6F894DEBF0FBECDBF09942A88398863
:1016300048885F846E847D848C849B84AA84B9846A
:10164000C884DF80EE80FD800C811B81AA81B98176
:10165000CE0FD11D0FB6F894DEBF0FBECDBFED018A
:101660000895EE0FFF1F0590F491E02D09940F935C
:101670001F93CF93DF938230910510F482E090E0C6
:10168000E091B903F091BA0330E020E0B0E0A0E0CF
:10169000309799F42115310509F44AC0281B390BFC
:1016A00024303105D8F58A819B816115710589F156
:1016B000FB0193838283FE0111C04081518102812D
:1016C000138148175907E0F04817590799F4109704
:1016D00061F012960C93129713961C933296CF01D9
:1016E000DF91CF911F910F9108950093B90310934B
:1016F000BA03F4CF2115310551F04217530738F0E2
:10170000A901DB019A01BD01DF01F801C1CFEF01A1
:10171000F9CF9093BA038093B903CDCFFE01E20FC6
:10172000F31F819391932250310939832883D7CFB6
:101730002091B7033091B803232B41F42091150178
:10174000309116013093B8032093B7032091130111
:10175000309114012115310541F42DB73EB7409168
:10176000170150911801241B350BE091B703F0913C
:10177000B803E217F307A0F42E1B3F0B2817390715
:1017800078F0AC014E5F5F4F2417350748F04E0FDD
:101790005F1F5093B8034093B703819391939FCFFA
:1017A000F0E0E0E09CCFCF93DF930097E9F0FC01FD
:1017B000329713821282A091B903B091BA03ED015E
:1017C00030E020E01097A1F420813181820F931F37
:1017D0002091B7033091B8032817390709F061C089
:1017E000F093B803E093B703DF91CF910895EA0136
:1017F000CE17DF07E8F54A815B819E01411551054F
:10180000B1F7E901FB83EA8349915991C40FD51FD0
:10181000EC17FD0761F4808191810296840F951F7A
:10182000E90199838883828193819B838A83F0E095
:10183000E0E012968D919C9113970097B9F52D9148
:101840003C911197CD010296820F931F2091B7030F
:101850003091B8032817390739F6309751F51092AF
:10186000BA031092B903B093B803A093B703BCCFE7
:10187000D383C28340815181840F951FC817D90734
:1018800061F44E5F5F4F88819981480F591F5183E2
:1018900040838A819B81938382832115310509F0DE
:1018A000B0CFF093BA03E093B9039ECFFD01DC0102
:1018B000C0CF13821282D7CFB0E0A0E0E2E6FCE016
:1018C0000C94FC0A8C01009751F4CB010E94370B59
:1018D0008C01C801CDB7DEB7E0E10C94180BFC0118
:1018E000E60FF71F9C0122503109E217F30708F4B5
:1018F0009DC0D901CD91DC911197C617D70798F0FB
:10190000C530D10530F3CE0104978617970708F349
:10191000C61BD70B2297C193D1936D937C93CF01B4
:101920000E94D30BD6CF5B01AC1ABD0A4C018C0EC2
:101930009D1EA091B903B091BA03512C412CF12CFA
:10194000E12C109731F58091B7039091B803881579
:10195000990509F05CC04616570608F058C08091FA
:10196000130190911401009741F48DB79EB74091F7
:10197000170150911801841B950BE817F90708F01F
:1019800055C0F093B803E093B703F9017183608306
:10199000A0CF8D919C91119712966C9012971396EF
:1019A0007C901397A815B90559F56C0142E0C40E57
:1019B000D11CCA14DB0420F1AC014A195B09DA011D
:1019C0001296159780F06282738251834083D90109
:1019D0006D937C93E114F10471F0D7011396FC939D
:1019E000EE93129776CF22968C0F9D1FF90191836B
:1019F0008083F301EFCFF093BA03E093B90369CF8B
:101A00004816590608F42C017D01D3019ACFCB0169
:101A10000E94370B7C01009749F0AE01B8010E948B
:101A2000190DC8010E94D30B870153CF10E000E0CD
:101A300050CFFB01DC0102C001900D92415050409B
:101A4000D8F70895FB01DC0101900D920020E1F729
:101A5000089510E0C2E6D0E004C0FE010E94310B00
:0C1A60002196C336D107C9F7F894FFCFD8
:101A6C000304050607080931323334353637383963
:101A7C002A30230000BB03800000004000140054F7
:101A8C000000000000F602C90289039F02C202AFE7
:101A9C0002A002000000001302D301A2010000000A
:101AAC0000A30423018903220131323300202020BA
:101ABC0048414B414E204F5A43414E20202000209C
:101ACC0020204F544F4D4154494B202020002020C2
:101ADC002020204B41504920202020200020202075
:101AEC0053495354454D4920202000205349465218
:101AFC004520474952494E495A20002048415441FB
:101B0C004C4920534946524520002020204B41503F
:101B1C0049204143494C44492020200020202048A2
:101B2C004F5347454C44494E495A20202000204BE6
:101B3C0041504920352053414E49594520002053EE
:101B4C004F4E5241204B4150414E4143414B20009E
:101B5C00204B41504920342053414E4959452000D7
:101B6C00204B41504920332053414E4959452000C8
:101B7C00204B41504920322053414E4959452000B9
:101B8C00204B41504920312053414E4959452000AA
:101B9C00204B415049204B4150414E44492000209C
:101BAC00484154414C49205349465245212121205A
:101BBC00002045524953494D20454E47454C4C4514
:061BCC004E444920000018
:00000001FF
